:1004000000020002000000010000000600010001DF
:10039E00140E00C000F900A400B000990092008273
:1003AE0000F80080009010220001000200040008F6
:0C03BE0000100020004000800238000009
:0B041000EF1FAC0670011E4C70F622BE
:1003F000758901758A2F758CF8D2AFD2A9D28C225B
:1003CB00ED25E0240EF808E6F580EF25E02422F871
:1003DB0008E6F5A07F647E001204107580FF75801F
:0503EB00BF75A02422F3
:10018F00AB07AA067C0E7D101201048E0C8F0D7C1E
:10019F000E7D10AF03AE021201047E007F3CCFCD67
:1001AF00CFCECCCE1201048E0A8F0BAE02AF037CE2
:1001BF00007D3C1201048C088D09AE08AF097C004C
:1001CF007D0A1201047F077E001203CBAE08AF0930
:1001DF007C007D0A120104AC06AD077F067E00127B
:1001EF0003CBAE0AAF0B7C007D0A1201047F047EA5
:1001FF00001203CBAE0AAF0B7C007D0A120104ACD8
:10020F0006AD077F037E001203CBAE0CAF0D7C0053
:10021F007D0A1201047F017E001203CBAE0CAF0DDD
:10022F007C007D0A120104AC06AD07E4FFFE020359
:01023F00CBF3
:10035400783A7C007D007BFF7A0479007E007F1070
:100364001200DEE4FBFAEB25E0243AF808E625E087
:10037400240EF808E6F580EB25E02422F808E6F5DB
:10038400A07F967E001204107580FF0BBB00010A4B
:09039400EB64084A70D0E4FEFF9E
:01039D00223D
:03000B000202CC22
:1002CC00C0E0C0F0C083C082C0D075D000C000C0F8
:1002DC0001C002C003C004C005C006C007758A78FF
:1002EC00758CEC0533E53370020532C394C8E532E6
:1002FC0064809480401E7532007533000539E539F1
:10030C00700205389480E538648094D140067538C5
:10031C0000753900D3E5399401E538648094804048
:10032C0009AF39AE3812018F8003120354D007D0B5
:10033C0006D005D004D003D002D001D000D0D0D04C
:08034C0082D083D0F0D0E03232
:050003001203F080FE75
:03000000020240B9
:0C024000787FE4F6D8FD75814902028742
:10000E00E709F608DFFA8046E709F208DFFA803ED4
:10001E0088828C83E709F0A3DFFA8032E309F608C1
:10002E00DFFA8078E309F208DFFA807088828C8329
:10003E00E309F0A3DFFA806489828A83E0A3F608DD
:10004E00DFFA805889828A83E0A3F208DFFA804CB7
:10005E0080D280FA80C680D4806980F2803380108E
:10006E0080A680EA809A80A880DA80E280CA8033F7
:10007E0089828A83ECFAE493A3C8C582C8CCC5836F
:10008E00CCF0A3C8C582C8CCC583CCDFE9DEE7803F
:10009E000D89828A83E493A3F608DFF9ECFAA9F0BE
:1000AE00EDFB2289828A83ECFAE0A3C8C582C8CC14
:1000BE00C583CCF0A3C8C582C8CCC583CCDFEADE2D
:1000CE00E880DB89828A83E493A3F208DFF980CC8F
:1000DE0088F0EF60010E4E60C388F0ED2402B40488
:1000EE000050B9F582EB2402B4040050AF2323452F
:0600FE00822390005E73F6
:10010400C2D5EC30E709B2D5E4C39DFDE49CFCEE16
:1001140030E715B2D5E4C39FFFE49EFE12013AC353
:10012400E49DFDE49CFC800312013A30D507C3E44E
:060134009FFFE49EFE2285
:10024C00020003E493A3F8E493A34003F68001F2C5
:10025C0008DFF48029E493A3F85407240CC8C333B3
:10026C00C4540F4420C8834004F456800146F6DF82
:10027C00E4800B010204081020408090039EE47E71
:10028C00019360BCA3FF543F30E509541FFEE49377
:10029C00A360010ECF54C025E060A840B8E493A33E
:1002AC00FAE493A3F8E493A3C8C582C8CAC583CA69
:1002BC00F0A3C8C582C8CAC583CADFE9DEE780BE21
:0103CA000032
:10013A00BC000BBE0029EF8DF084FFADF022E4CCA9
:10014A00F875F008EF2FFFEE33FEEC33FCEE9DEC72
:10015A00984005FCEE9DFE0FD5F0E9E4CEFD22EDB8
:10016A00F8F5F0EE8420D21CFEADF075F008EF2F02
:10017A00FFED33FD4007985006D5F0F222C398FDF3
:05018A000FD5F0EA2290
:00000001FF
