:100347000002000200000001000000060001000199
:1002F500140E00C000F900A400B00099009200821D
:1003050000F800800090102600010002000400089B
:0C031500001000200040008002380000B2
:0B036500EF1FAC0670011E4C70F6226A
:0E035700758901758A2F758CF8D2AFD2A92254
:04032200AB07AA0675
:100326007C007D0A1201048E4A8F4BAE02AF037C1D
:10033600007D0A1201048C4C8D4D7B007A00794AAF
:010346002294
:03000B0002018F60
:10018F00C0E0C0F0C0D075D000C000C004C005C032
:10019F0006C007758A78758CEC0537E53770020550
:1001AF0036D394C8E53664809480401C753600754C
:1001BF0037000539E53970020538B4800BE538B4DE
:1001CF005106753800753900AE38AF397C0E7D1089
:1001DF001201048E0C8F0DAE38AF397C0E7D1012CC
:1001EF0001047E007F3CCFCDCFCECCCE1201048E4A
:1001FF000A8F0BAE38AF397C007D3C1201048C089E
:10020F008D09D007D006D005D004D000D0D0D0F0C3
:03021F00D0E032FA
:1002AE00783A7C007D007BFF7A0379477E007F10D1
:1002BE001200DEE4FBFAEB25E0243AF808E625E02E
:1002CE00240EF808E6F580EB25E02426F808E6F57E
:1002DE00A07F6E7E001203657580FF0BBB00010AC6
:0602EE00EB64084A70D029
:0102F40022E7
:060003001202AE02000033
:03000000020222D7
:0C022200787FE4F6D8FD75814D0202697A
:10000E00E709F608DFFA8046E709F208DFFA803ED4
:10001E0088828C83E709F0A3DFFA8032E309F608C1
:10002E00DFFA8078E309F208DFFA807088828C8329
:10003E00E309F0A3DFFA806489828A83E0A3F608DD
:10004E00DFFA805889828A83E0A3F208DFFA804CB7
:10005E0080D280FA80C680D4806980F2803380108E
:10006E0080A680EA809A80A880DA80E280CA8033F7
:10007E0089828A83ECFAE493A3C8C582C8CCC5836F
:10008E00CCF0A3C8C582C8CCC583CCDFE9DEE7803F
:10009E000D89828A83E493A3F608DFF9ECFAA9F0BE
:1000AE00EDFB2289828A83ECFAE0A3C8C582C8CC14
:1000BE00C583CCF0A3C8C582C8CCC583CCDFEADE2D
:1000CE00E880DB89828A83E493A3F208DFF980CC8F
:1000DE0088F0EF60010E4E60C388F0ED2402B40488
:1000EE000050B9F582EB2402B4040050AF2323452F
:0600FE00822390005E73F6
:10010400C2D5EC30E709B2D5E4C39DFDE49CFCEE16
:1001140030E715B2D5E4C39FFFE49EFE12013AC353
:10012400E49DFDE49CFC800312013A30D507C3E44E
:060134009FFFE49EFE2285
:10022E00020003E493A3F8E493A34003F68001F2E3
:10023E0008DFF48029E493A3F85407240CC8C333D1
:10024E00C4540F4420C8834004F456800146F6DFA0
:10025E00E4800B01020408102040809002F5E47E39
:10026E00019360BCA3FF543F30E509541FFEE49395
:10027E00A360010ECF54C025E060A840B8E493A35C
:10028E00FAE493A3F8E493A3C8C582C8CAC583CA87
:10029E00F0A3C8C582C8CAC583CADFE9DEE780BE3F
:0103210000DB
:10013A00BC000BBE0029EF8DF084FFADF022E4CCA9
:10014A00F875F008EF2FFFEE33FEEC33FCEE9DEC72
:10015A00984005FCEE9DFE0FD5F0E9E4CEFD22EDB8
:10016A00F8F5F0EE8420D21CFEADF075F008EF2F02
:10017A00FFED33FD4007985006D5F0F222C398FDF3
:05018A000FD5F0EA2290
:00000001FF
