:10025A00120800FE00FD00FB00F700EF00DF00BF00
:10026A00007F00FF101C00FC00F900F300E700CF3C
:06027A00009F003F00FFA1
:09028100F808E6F5807F887E1381
:0B028A00EF1FAC0670011E4C70F62246
:1000ED00E4F51AF51BE51A60030201B7E51B146070
:1000FD003A14606214700302018E2403600302013E
:10010D00B7E4F52CF52DE52D25E0240812028185A7
:10011D001980052DE52D7002052CC39408E52C647E
:10012D0080948040E18519800201B7E4F52CF52D0E
:10013D00E52D25E02408F808E6F5901202868519CC
:10014D0090052DE52D7002052CC39408E52C6480D7
:10015D00948040DC8054E4F52CF52DE52D25E0242C
:10016D0008F808E6F5A01202868519A0052DE52DE3
:10017D007002052CC39408E52C6480948040DC80CB
:10018D0029E4F52CF52DE52D25E02408F808E6F5F4
:10019D00B01202868519B0052DE52D7002052CC310
:1001AD009408E52C6480948040DC051BE51B7002EF
:1001BD00051AD39403E51A6480948050030200F26B
:0101CD00220F
:10000300E4F51AF51BE51A60030200D6E51B14603C
:100013003A1460651470030200AA2403600302000B
:10002300D6E4F52CF52DE52D25E0241C120281855F
:100033002B80052DE52D7002052CC39408E52C6457
:1000430080948040E1852B800200D6E4F52CF52DC9
:10005300E52D25E0241CF808E6F590120286852B91
:1000630090052DE52D7002052CC39407E52C6480C3
:10007300948040DC852B90805AE4F52CF52DE52DFA
:1000830025E0241CF808E6F5A0120286852BA005BE
:100093002DE52D7002052CC39407E52C6480948014
:1000A30040DC852BA0802CE4F52CF52DE52D25E0F7
:1000B300241CF808E6F5B0120286852BB0052DE561
:1000C3002D7002052CC39407E52C6480948040DCDA
:1000D300852BB0051BE51B7002051AD39403E51AA3
:0A00E300648094805003020008229C
:060295001200ED0200035F
:030000000201CE2C
:0C01CE00787FE4F6D8FD75812D02021543
:1001DA00020295E493A3F8E493A34003F68001F2A4
:1001EA0008DFF48029E493A3F85407240CC8C33326
:1001FA00C4540F4420C8834004F456800146F6DFF5
:10020A00E4800B010204081020408090025AE47E28
:10021A00019360BCA3FF543F30E509541FFEE493E9
:10022A00A360010ECF54C025E060A840B8E493A3B0
:10023A00FAE493A3F8E493A3C8C582C8CAC583CADB
:10024A00F0A3C8C582C8CAC583CADFE9DEE780BE93
:01028000007D
:00000001FF
