:10026E00120800FE00FD00FB00F700EF00DF00BFEC
:10027E00007F00FF101C00FC00F900F300E700CF28
:06028E00009F003F00FF8D
:09029500F808E6F5807F887E136D
:0B029E00EF1FAC0670011E4C70F62232
:1000F800E4F51AF51BE51A60030201C2E51B14605A
:100108003A14606214700302019924036003020127
:10011800C2E4F52CF52DE52D25E02408120295857D
:100128001980052DE52D7002052CC39408E52C6473
:1001380080948040E18519800201C2E4F52CF52DF8
:10014800E52D25E02408F808E6F59012029A8519AD
:1001580090052DE52D7002052CC39408E52C6480CC
:10016800948040DC8054E4F52CF52DE52D25E02421
:1001780008F808E6F5A012029A8519A0052DE52DC4
:100188007002052CC39408E52C6480948040DC80C0
:1001980029E4F52CF52DE52D25E02408F808E6F5E9
:1001A800B012029A8519B0052DE52D7002052CC3F1
:1001B8009408E52C6480948040DC051BE51B7002E4
:1001C800051AD39403E51A6480948050030200FD55
:0A01D800E4F5B0F5A0F590F58022E3
:10000300751A00751B03E51A60030200E3E51B1470
:10001300603D14606B1470030200B4240360030298
:1000230000E3752C00752D08E52D25E0241C120234
:1000330095852B80E52D152D7002152CD3E52D9478
:1000430000E52C6480948050DF852B800200E375EB
:100053002C00752D07E52D25E0241CF808E6F59006
:1000630012029A852B90E52D152D7002152CD3E5E0
:100073002D9400E52C6480948050DA852B90806069
:10008300752C00752D07E52D25E0241CF808E6F5F1
:10009300A012029A852BA0E52D152D7002152CD3E5
:1000A300E52D9400E52C6480948050DA852BA080A4
:1000B3002F752C00752D07E52D25E0241CF808E687
:1000C300F5B012029A852BB0E52D152D7002152C73
:1000D300D3E52D9400E52C6480948050DA852BB011
:1000E300E51B151B7002151AC3E51A648094804042
:0500F3000302000922D8
:0602A9001200F802000340
:030000000201E218
:0C01E200787FE4F6D8FD75812D0202291B
:1001EE000202A9E493A3F8E493A34003F68001F27C
:1001FE0008DFF48029E493A3F85407240CC8C33312
:10020E00C4540F4420C8834004F456800146F6DFE0
:10021E00E4800B010204081020408090026EE47E00
:10022E00019360BCA3FF543F30E509541FFEE493D5
:10023E00A360010ECF54C025E060A840B8E493A39C
:10024E00FAE493A3F8E493A3C8C582C8CAC583CAC7
:10025E00F0A3C8C582C8CAC583CADFE9DEE780BE7F
:010294000069
:00000001FF
