:10048E0002340000020E000002140000020C0000F4
:10049E000212000102100000102400800040002013
:1004AE00001000080004000200010A1AC0F9A4B0EE
:0604BE00999282F8809083
:0904EA0025E02424F808E6F58061
:0504F300D290C290222E
:0A04C5001204CF7580FF7F147E0043
:0B04CF00EF1FAC0670011E4C70F622FF
:1000C900AB07AA067C007D3C1202997E007F0ACF0D
:1000D900CDCFCECCCE1202998E168F177C007D3CE7
:1000E900AF03AE021202997E007F0ACFCDCFCECCEC
:1000F900CE1202998C188D197C007D3CAF03AE029B
:100109001202997C007D3C1202997E007F0ACFCDB4
:10011900CFCECCCE1202998E368F377C007D3CAF84
:1001290003AE021202997C007D3C1202997E007F87
:100139000ACFCDCFCECCCE1202998C388D397C0E18
:100149007D10AF03AE021202997C007D0A1202995A
:100159008E088F09AE02AF037C0E7D101202997CC6
:0B016900007D0A1202998C0A8D0B2207
:03000B00020324C9
:10032400C0E0C0F0C0D075D000C000C002C003C09F
:1003340004C005C006C007758CEC758A770535E5E1
:100344003570020534050FE50F7002050ED3E5354F
:100354009464E534648094804016E5136401451286
:10036400700E0515E5157002051475340075350019
:10037400D3E50F9464E50E64809480400C630DFF14
:10038400630CFF750E00750F00AF15AE141200C993
:10039400D007D006D005D004D003D002D000D0D0EE
:0503A400D0F0D0E032B2
:1004DA00758901758CEC758A78D2AFD2A9D28C2233
:10040E007580FFED1204EA741A2FF8E6F5807F2C42
:10041E007E011204CF7580FF7580041204F3E50D82
:10042E0044BFF5807F327E001204CF7580FF758049
:10043E00201204F3E50D44BFF5807F327E000204E6
:01044E00CFDE
:10044F00AB05AA048F821204C8EB1204EAAF8274C0
:10045F001A2FF8E6450DF5807F2C7E011204C57525
:10046F0080041204F37580BF7F647E001204C5758B
:0F047F0080201204F37580BF7F647E000204CFDB
:060174007F01E4FDFCFE2A
:10017A008E3C8F3D8C3E8D3FE53D453C7026E53FEC
:10018A00453E7D017C00AF17AE16600C12044FE4A9
:10019A001DFCAF19AE18805A12040EE41DFCAF19EB
:1001AA00AE18805BE53D6401453C7026E53F453E5F
:1001BA007D047C00AF37AE36600C12044F1D7C0004
:1001CA00AF39AE38802C12040E1D7C00AF39AE3820
:1001DA00802DE53D6402453C7028E53F453E7D079C
:1001EA007C00AF09AE08600D12044F1D7C00AF0BF6
:1001FA00AE0A02044F12040E1D7C00AF0BAE0A12A7
:03020A00040E22BD
:1003A900753C00753D01E510701CE51114600D14D4
:1003B9006010240270107A007B01800A7A007B3C6D
:1003C90080047A0E7B10E53D6401453C701720A13D
:1003D900147FC8FE1204CF20A12AEB2515F515EAD2
:1003E9003514F51422E53D6401453C701720A2142B
:1003F9007FC8FE1204CF20A20BC3E5159BF515E5B6
:04040900149AF51438
:01040D0022CC
:10000E00753A00753B01E51345126010E4FDFCFFE7
:10001E00FE12017A1201747F02120176E53B640131
:10002E00453A702420A021F512F5137F32FE1204FA
:10003E00CF20A014E5112401FFE43510FE7C007DD5
:10004E00031202998C108D11E51345127063E511A0
:10005E00451070177D01FCFFFE12017A120174E447
:10006E00FDFC7F02FE12017A1203A9E5116401451F
:10007E0010701EFDFCFFFE12017A7D017C007F01D7
:10008E007E0012017AE4FDFC7F02FE12017A120359
:10009E00A9E511640245107018FDFCFFFE12017AED
:1000AE001201747D017C007F027E0012017A120320
:0A00BE00A920A306751200751301B6
:0100C8002215
:080003001204DA12000E80FB6A
:0300000002020DEC
:0C020D00787FE4F6D8FD75813F020254B2
:10029900C2D5EC30E709B2D5E4C39DFDE49CFCEE80
:1002A90030E715B2D5E4C39FFFE49EFE1202CFC327
:1002B900E49DFDE49CFC80031202CF30D507C3E422
:0602C9009FFFE49EFE22EF
:10021900020003E493A3F8E493A34003F68001F2F8
:1002290008DFF48029E493A3F85407240CC8C333E6
:10023900C4540F4420C8834004F456800146F6DFB5
:10024900E4800B010204081020408090048EE47EB3
:10025900019360BCA3FF543F30E509541FFEE493AA
:10026900A360010ECF54C025E060A840B8E493A371
:10027900FAE493A3F8E493A3C8C582C8CAC583CA9C
:10028900F0A3C8C582C8CAC583CADFE9DEE780BE54
:0104C4000037
:1002CF00BC000BBE0029EF8DF084FFADF022E4CC13
:1002DF00F875F008EF2FFFEE33FEEC33FCEE9DECDC
:1002EF00984005FCEE9DFE0FD5F0E9E4CEFD22ED22
:1002FF00F8F5F0EE8420D21CFEADF075F008EF2F6C
:10030F00FFED33FD4007985006D5F0F222C398FD5C
:05031F000FD5F0EA22F9
:00000001FF
