:1004A60002340000020E000002140000020C0000DC
:1004B60002120001021000001024008000400020FB
:1004C600001000080004000200010A1AC0F9A4B0D6
:0604D600999282F880906B
:0F04DD00F5807F2C7E011205017580FF7580046C
:0504EC00D290C2902235
:0B050100EF1FAC0670011E4C70F622CC
:1000BC00AB07AA067C007D3C1203247E007F0ACF8E
:1000CC00CDCFCECCCE1203248E168F177C007D3C68
:1000DC00AF03AE021203247E007F0ACFCDCFCECC6D
:1000EC00CE1203248C188D197C007D3CAF03AE021C
:1000FC001203247C007D3C1203247E007F0ACFCDAA
:10010C00CFCECCCE1203248E368F377C007D3CAF05
:10011C0003AE021203247C007D3C1203247E007F7C
:10012C000ACFCDCFCECCCE1203248C388D397C0E99
:10013C007D10AF03AE021203247C007D0A1203244F
:10014C008E088F09AE02AF037C0E7D101203247C47
:0B015C00007D0A1203248C0A8D0B2288
:03000B000203AF3E
:1003AF00C0E0C0F0C0D075D000C000C002C003C014
:1003BF0004C005C006C007758CEC758A770535E556
:1003CF003570020534050FE50F7002050ED3E535C4
:1003DF009464E534648094804016E51364014512FB
:1003EF00700E0515E515700205147534007535008E
:1003FF00D3E50F9464E50E64809480400C630DFF89
:10040F00630CFF750E00750F00AF15AE141200BC14
:10041F00D007D006D005D004D003D002D000D0D062
:05042F00D0F0D0E03226
:1004F100758901758CEC758A78D2AFD2A9D28C221C
:100434007580FFED25E02424F808E6F5801204EC2D
:10044400741A2FF8E61204DDE50D44BFF5807F64CD
:100454007E001205017580FF7580201204ECE50D05
:0B04640044BFF5807F647E00020501AC
:10046F007580FFED25E02424F808E6F5801204ECF2
:10047F00741A2FF8E6450D1204DD7580BF7F647E78
:10048F00001205017580FF7580201204EC7580BF86
:07049F007F647E00020501ED
:10016700FCFFFE12017CE4FDFCFE7F0112017C7F97
:0501770002E4FDFCFEA6
:10017C00AB05AA048F828E83E58245837024EB4AFB
:10018C007D017C00AF17AE16600C12046FE41DFCF1
:10019C00AF19AE188056120434E41DFCAF19AE181A
:1001AC008057E582640145837024EB4A7D047C0012
:1001BC00AF37AE36600C12046F1D7C00AF39AE3811
:1001CC00802A1204341D7C00AF39AE38802BE582B6
:1001DC00640245837026EB4A7D077C00AF09AE08AC
:1001EC00600D12046F1D7C00AF0BAE0A02046F127F
:0D01FC0004341D7C00AF0BAE0A1204342247
:10020900753C00753D01753E00753F01E510701C98
:10021900E51114600D146010240270107A007B013E
:10022900800A7A007B3C80047A0E7B10E53D6401EC
:10023900453C701F20A11C7F32FE12050120A10A36
:10024900EB2515F515EA3514F514A2A1E433753C2F
:1002590000F53DE53F6401453E702020A21D7F3237
:10026900FE12050120A20BC3E5159BF515E5149AAD
:10027900F514A2A2E433753E00F53F7FDC7E05123A
:0E0289000501753E00753F01753C00753D0195
:010297002244
:10000E00753A00753B01E51345126005E4FD1201DA
:10001E0067E53B6401453A703420A031F512F513C3
:10002E007F64FE12050120A014E5112401FFE435C2
:10003E0010FE7C007D031203248C108D11A2A0E40F
:10004E0033753A00F53B7F327E00120501753A009A
:10005E00753B01E5134512704BE511451070087D97
:10006E0001120167120209E511640145107013FDBA
:10007E00FCFFFE12017C7D017C007E0012017112DC
:10008E000209E51164024510701AFDFCFFFE120113
:10009E007C7F011201787D017C007F027E001201BF
:0D00AE007C12020920A306751200751301D3
:0100BB002222
:080003001204F112000E80FB53
:0300000002029861
:0C029800787FE4F6D8FD75813F0202DF9C
:10032400C2D5EC30E709B2D5E4C39DFDE49CFCEEF4
:1003340030E715B2D5E4C39FFFE49EFE12035AC30F
:10034400E49DFDE49CFC800312035A30D507C3E40A
:060354009FFFE49EFE2263
:1002A400020003E493A3F8E493A34003F68001F26D
:1002B40008DFF48029E493A3F85407240CC8C3335B
:1002C400C4540F4420C8834004F456800146F6DF2A
:1002D400E4800B01020408102040809004A6E47E10
:1002E400019360BCA3FF543F30E509541FFEE4931F
:1002F400A360010ECF54C025E060A840B8E493A3E6
:10030400FAE493A3F8E493A3C8C582C8CAC583CA10
:10031400F0A3C8C582C8CAC583CADFE9DEE780BEC8
:0104DC00001F
:10035A00BC000BBE0029EF8DF084FFADF022E4CC87
:10036A00F875F008EF2FFFEE33FEEC33FCEE9DEC50
:10037A00984005FCEE9DFE0FD5F0E9E4CEFD22ED96
:10038A00F8F5F0EE8420D21CFEADF075F008EF2FE0
:10039A00FFED33FD4007985006D5F0F222C398FDD1
:0503AA000FD5F0EA226E
:00000001FF
