:100AA30002340000020E000002140000020C0000D9
:100AB30002120001021000011024008000400020F7
:100AC300001000080004000200010A1AC0F9A4B0D3
:060AD300999282F8809068
:0D0BA1007580FFED25E02424F808E6F580BE
:050BAE00D290C290226C
:100B0500F5807FC87E00120B217580FF7580041269
:0C0B15000BAEE50D44BFF5807FC87E00EC
:0B0B2100EF1FAC0670011E4C70F622A6
:10080000AB07AA067C007D3C1209377E007F0ACF29
:10081000CDCFCECCCE1209378E168F177C007D3C03
:10082000AF03AE021209377E007F0ACFCDCFCECC08
:10083000CE1209378C188D197C007D3CAF03AE02B7
:100840001209377C007D3C1209377E007F0ACFCD2C
:10085000CFCECCCE1209378E368F377C007D3CAFA1
:1008600003AE021209377C007D3C1209377E007FFF
:100870000ACFCDCFCECCCE1209378C388D397C0E35
:100880007D10AF03AE021209377C007D0A120937D2
:100890008E088F09AE02AF037C0E7D101209377CE3
:0B08A000007D0A1209378C0A8D0B2224
:03000B000209C225
:1009C200C0E0C0F0C0D075D000C000C002C003C0FB
:1009D20004C005C006C007758CEC758A770535E53D
:1009E2003570020534050FE50F7002050ED3E535AB
:1009F2009432E534648094804016E5136401451214
:100A0200700E0515E5157002051475340075350074
:100A1200D3E50F9432E50E64809480400C630DFFA1
:100A2200630CFF750E00750F00AF15AE14120800AF
:100A3200D007D006D005D004D003D002D000D0D049
:050A4200D0F0D0E0320D
:100BB300758901758CEC758A78D2AFD2A9D28C2253
:100B2C00120BA1741A2FF8E6120B057580FF758055
:100B3C0020120BAEE50D44BFF5807FC87E00020B82
:010B4C002187
:080ADA007D047C00AF37AE364D
:100AE200120BA1741A2FF8E6450D120B057580FF43
:100AF200758020120BAEE50D44BFF5807FC87E00E5
:030B0200020B21C2
:100B4D007D017C00AF17AE16120B2CE41DFCAF1906
:050B5D00AE18020B2C94
:0D0BC300120ADA1D7C00AF39AE38020B2C8F
:100B62007D077C00AF09AE08120AE21D7C00AF0BC4
:050B7200AE0A020AE2D8
:100B77007D017C00AF17AE16120AE2E41DFCAF1927
:050B8700AE18020AE2B5
:0D0BD000120ADA1D7C00AF39AE38020AE2CD
:100B8C007D077C00AF09AE08120B2C1D7C00AF0B4F
:050B9C00AE0A020B2C63
:100A4700120B4D120BC3120B6220A046E4F512F5F0
:100A5700130511E51170020510AE10FF7C007D0330
:100A6700120937ED64014C7003120B8CAE10AF11F5
:100A77007C007D03120937ED64024C7003120BD022
:100A8700AE10AF117C007D03120937ED4C700312D5
:0C0A97000B7720A30675120075130122D6
:080BDD00120BB3120A4780FB62
:030000000208AB48
:0C08AB00787FE4F6D8FD7581390208F270
:10093700C2D5EC30E709B2D5E4C39DFDE49CFCEEDB
:1009470030E715B2D5E4C39FFFE49EFE12096DC3DD
:10095700E49DFDE49CFC800312096D30D507C3E4D8
:060967009FFFE49EFE224A
:1008B700020BDDE493A3F8E493A34003F68001F26F
:1008C70008DFF48029E493A3F85407240CC8C33342
:1008D700C4540F4420C8834004F456800146F6DF11
:1008E700E4800B0102040810204080900AA3E47EF4
:1008F700019360BCA3FF543F30E509541FFEE49306
:10090700A360010ECF54C025E060A840B8E493A3CC
:10091700FAE493A3F8E493A3C8C582C8CAC583CAF7
:10092700F0A3C8C582C8CAC583CADFE9DEE780BEAF
:010AD900001C
:10096D00BC000BBE0029EF8DF084FFADF022E4CC6E
:10097D00F875F008EF2FFFEE33FEEC33FCEE9DEC37
:10098D00984005FCEE9DFE0FD5F0E9E4CEFD22ED7D
:10099D00F8F5F0EE8420D21CFEADF075F008EF2FC7
:1009AD00FFED33FD4007985006D5F0F222C398FDB8
:0509BD000FD5F0EA2255
:00000001FF
