:100C31000248000002120000021800000210000029
:100C41000216000102140000102800010002000435
:100C5100000800100020004000800A1EC0F9A4B066
:100C6100999282F880901038000800020004000078
:100C7100000100000002000202080001020A000156
:0D0D13007580FFED25E02428F808E6F58046
:050D2000D290C29022F8
:060D2500F5807F647E00F2
:0B0D2B00EF1FAC0670011E4C70F6229A
:10080000AB07AA067C007D3C120B297E007F0ACF35
:10081000CDCFCECCCE120B298E1A8F1B7C007D3C07
:10082000AF03AE02120B297E007F0ACFCDCFCECC14
:10083000CE120B298C1C8D1D7C007D3CAF03AE02BB
:10084000120B297C007D3C120B297E007F0ACFCD44
:10085000CFCECCCE120B298E4A8F4B7C007D3CAF85
:1008600003AE02120B297C007D3C120B297E007F17
:100870000ACFCDCFCECCCE120B298C4C8D4D7C0E19
:100880007D10AF03AE02120B297C007D0A120B29EA
:100890008E0C8F0DAE02AF037C0E7D10120B297CE7
:0B08A000007D0A120B298C0E8D0F2228
:100CE800E4FBFA7580FFEB120D17EB25E02438F8CA
:100CF80008E6241EF8E6F5807F2C7E01120D2B0BEA
:0A0D0800BB00010AEB64084A70D931
:010D120022BE
:03000B0002095592
:10095500C0E0C0F0C083C082C0D075D000C000C068
:1009650001C002C003C004C005C006C007758CECF9
:10097500758A770549E549700205480513E5137041
:10098500020512D3E5499419E54864809480401620
:10099500E51764014516700E0519E519700205186D
:1009A500754800754900D3E5139419E512648094E0
:1009B50080400C6311FF6310FF751200751300AFC3
:1009C50019AE18120800C3E5199401E5186480945E
:1009D500805005120CE880031208ABD007D006D072
:1009E50005D004D003D002D001D000D0D0D082D021
:0609F50083D0F0D0E032D7
:100D3600758901758CEC758A78D2AFD2A9D28C22CE
:100CB700120D13741E2FF8E6120D257580FF75802F
:100CC70004120D20E51144BF120D257580FF7580B4
:100CD70020120D20E51144BFF5807F647E00020DD0
:010CE7002BE1
:100C8200120D13741E2FF8E64511F5807F2C7E019C
:100C9200120D2B7580FF758004120D207580BF1216
:100CA2000D277580FF758020120D207580BF7F642F
:050CB2007E00020D2B85
:1009FB00FCFFFE120A10E4FDFCFE7F01120A107FC1
:050A0B0002E4FDFCFE09
:100A1000AB05AA048F828E83E58245837024EB4A5E
:100A20007D017C00AF1BAE1A600C120C82E41DFC31
:100A3000AF1DAE1C8056120CB7E41DFCAF1DAE1CE2
:100A40008057E582640145837024EB4A7D047C0075
:100A5000AF4BAE4A600C120C821D7C00AF4DAE4C09
:100A6000802A120CB71D7C00AF4DAE4C802BE58266
:100A7000640245837026EB4A7D077C00AF0DAE0C07
:100A8000600D120C821D7C00AF0FAE0E020C8212A4
:0D0A90000CB71D7C00AF0FAE0E120CB7228C
:100BB400E514701CE51514600D1460102402701007
:100BC4007A007B01800A7A007B3C80047A0E7B10D9
:100BD400E50964014508701D20A11A7FC8FE120DA5
:100BE4002B20A11AEB2519F519EA3518F518E4F5A7
:100BF40008F509800930A106750800750901E50B9F
:100C04006401450A701D20A21A7FC8FE120D2B2014
:100C1400A21AC3E5199BF519E5189AF518E4F50A23
:0C0C2400F50B2230A206750A00750B01CA
:010C300022A1
:1008AB00754E00754F01E51745166005E4FD1209FD
:1008BB00FBE54F6401454E703020A02DF516F51762
:1008CB007F64FE120D2B20A014E5152401FFE435E7
:1008DB0014FE7C007D03120B298C148D15A2A0E451
:1008EB0033754E00F54F120D27754E00754F01E510
:1008FB00174516704BE515451470087D011209FB61
:10090B00120BB4E515640145147013FDFCFFFE12C8
:10091B000A107D017C007E00120A05120BB4E5154E
:10092B0064024514701AFDFCFFFE120A107F0112BF
:10093B000A0C7D017C007F027E00120A10120BB4A0
:09094B0020A306751600751701C2
:010954002280
:050D4600120D3680FED5
:03000000020A9D54
:0C0A9D00787FE4F6D8FD75814F020AE472
:100B2900C2D5EC30E709B2D5E4C39DFDE49CFCEEE7
:100B390030E715B2D5E4C39FFFE49EFE120B5FC3F5
:100B4900E49DFDE49CFC8003120B5F30D507C3E4F0
:060B59009FFFE49EFE2256
:100AA900020D46E493A3F8E493A34003F68001F210
:100AB90008DFF48029E493A3F85407240CC8C3334E
:100AC900C4540F4420C8834004F456800146F6DF1D
:100AD900E4800B0102040810204080900C31E47E70
:100AE900019360BCA3FF543F30E509541FFEE49312
:100AF900A360010ECF54C025E060A840B8E493A3D9
:100B0900FAE493A3F8E493A3C8C582C8CAC583CA03
:100B1900F0A3C8C582C8CAC583CADFE9DEE780BEBB
:010C81000072
:100B5F00BC000BBE0029EF8DF084FFADF022E4CC7A
:100B6F00F875F008EF2FFFEE33FEEC33FCEE9DEC43
:100B7F00984005FCEE9DFE0FD5F0E9E4CEFD22ED89
:100B8F00F8F5F0EE8420D21CFEADF075F008EF2FD3
:100B9F00FFED33FD4007985006D5F0F222C398FDC4
:050BAF000FD5F0EA2261
:00000001FF
