:10018700140800C000F900A400B000990092008292
:0601970000F8008000905A
:0B019E00EF1FAC0670011E4C70F62233
:04008F00AB07AA060B
:100093007C037DE81201148E208F217C037DE8AF61
:1000A30003AE021201147E007F64CFCDCFCECCCE3F
:1000B3001201148E1E8F1F7C007D64AF03AE0212EB
:1000C30001147E007F0ACFCDCFCECCCE1201148F88
:1000D30082AE02AF037C007D0A120114E52125E004
:1000E3002408F808E6F580E51F25E02408F808E66B
:1000F300F5A0AF82EF25E02408F808E6F5B0AF05D8
:10010300EF25E02408F808E6F5907F887E130201C6
:010113009E4D
:10016900E4F51CF51DAF1DAE1C12008F051DE51D24
:0D0179007002051CD3940FE51C942740E88C
:010186002256
:03000000020003F8
:0C000300787FE4F6D8FD75812102004AE8
:10011400BC000BBE0029EF8DF084FFADF022E4CCCF
:10012400F875F008EF2FFFEE33FEEC33FCEE9DEC98
:10013400984005FCEE9DFE0FD5F0E9E4CEFD22EDDE
:10014400F8F5F0EE8420D21CFEADF075F008EF2F28
:10015400FFED33FD4007985006D5F0F222C398FD19
:050164000FD5F0EA22B6
:10000F00020169E493A3F8E493A34003F68001F29D
:10001F0008DFF48029E493A3F85407240CC8C333F2
:10002F00C4540F4420C8834004F456800146F6DFC1
:10003F00E4800B0102040810204080900187E47EC9
:10004F00019360BCA3FF543F30E509541FFEE493B6
:10005F00A360010ECF54C025E060A840B8E493A37D
:10006F00FAE493A3F8E493A3C8C582C8CAC583CAA8
:10007F00F0A3C8C582C8CAC583CADFE9DEE780BE60
:01019D000061
:00000001FF
