:10021F0007083229140908040C10230001000200FA
:10022F000400080010002000400080140F00C000E0
:10023F00F900A400B000990092008200F80080003D
:01024F00901E
:07035600C2B4C2B7D2B42209
:0702A100120356D2B47F8E58
:1002A800E4FEEF1392B5D2B7C2B7EFC313FF0EBE89
:0202B80008F04C
:0102BA002221
:1002D300E4FFFEEFC313FF30B503430780D2B7C279
:0502E300B70EBE08EE9D
:0102E80022F3
:0D0331001202A1E4FF1202A8C2B5C2B4225C
:0D033E001202A17F801202A8C2B5C2B42233
:1002FE00120356D2B41202A8AF051202A8C2B4C29B
:02030E00B52216
:10031000E4FE120356D2B41202A81202D3C2B4C22F
:01032000B527
:0103210022B9
:0B034B00EF1FAC0670011E4C70F62284
:0601B1008B338A3489350E
:1001B700E4F536FCAB33AA34A9358C82758300127B
:1001C700001C75F00A84F536E92CF9E43AFA1200B6
:1001D7000375F00A84E5F012007CE536C454F0ABF1
:1001E70033AA34A9358C827583001200490CBC07E9
:1001F700C3120331753680E4FCAB33AA34A9358CBE
:100207008275830012001CFDAF361202FE0536050B
:08021700360CBC07E402033EB3
:06027C008B338A34893542
:100282007D81E4FCAF05120310AB33AA34A9358C8F
:0E02920082758300EF12008E0D0D0CBC07E686
:0102A000223B
:0F032200758921759850758DFD758BFDD28E22D2
:1002BB0075F00A84E5F0FD7C007E0012025A7F3A4D
:0802CB008F993099FDC29922C0
:1002E900AE07EEC4540F2430FF1202CBEE540F2494
:0502F90030FF0202CB02
:0902510075F00A84FD7C007E00BA
:10025A007580FFEF25E02423F808E6F580D290C2E6
:10026A0090ED25E0240FF808E6F5807F647E000211
:02027A00034B34
:10013C001203227B007A0079081201B17B007A004D
:10014C00790812027CAF0A1202E9E50A7F07120253
:10015C0051E50A7F061202BBAF091202E9E5097FDD
:10016C0004120251E5097F031202BBAF081202E927
:10017C00E50875F00A84FD7C007F017E0012025AAE
:10018C00E50875F00A84E5F0FD7C00E4FFFE120240
:10019C005A7F0D1202CB7F0A1202CB7F107E2712E0
:0501AC00034B020148B5
:030000000200B04B
:0C00B000787FE4F6D8FD7581360200F779
:10000300BB010689828A83E0225002E722BBFE02FB
:09001300E32289828A83E493222E
:10001C00BB010CE58229F582E5833AF583E0225099
:10002C0006E92582F8E622BBFE06E92582F8E222E3
:0D003C00E58229F582E5833AF583E49322FD
:10004900BB010FF8E58229F582E5833AF583E028BB
:10005900F0225009C58229F8E58226F622BBFE095D
:10006900C58229F8E22582F222F8EA2583F583E997
:03007900932822A7
:10007C00BB010689828A83F0225002F722BBFE0163
:02008C00F3225D
:10008E00F8BB010DE58229F582E5833AF583E8F0A8
:10009E00225006E92582C8F622BBFE05E92582C854
:0200AE00F2223C
:1000BC0002013CE493A3F8E493A34003F68001F21D
:1000CC0008DFF48029E493A3F85407240CC8C33345
:1000DC00C4540F4420C8834004F456800146F6DF14
:1000EC00E4800B010204081020408090021FE47E83
:1000FC00019360BCA3FF543F30E509541FFEE49309
:10010C00A360010ECF54C025E060A840B8E493A3CF
:10011C00FAE493A3F8E493A3C8C582C8CAC583CAFA
:10012C00F0A3C8C582C8CAC583CADFE9DEE780BEB2
:0102500000AD
:00000001FF
