:100800000000F91FF982F9DFFA37FA8AFAD8FB23D8
:10081000FB68FBAAFBE9FC24FC5BFC8FFCC1FCEF42
:10082000FD1BFD45FD6CFD91FDB4FDD5FDF4FE12F3
:10083000FE2DFE48FE60FE78FE86FEA3FEB6FEC9D3
:10084000FEDAFFEBFEFAFF09FF17FF24FF30FF3C43
:10085000FF47FF51FF5BFF64FF6DFF75FF7DFF8466
:10086000FF8B0004000101010301050106010801DD
:100870000A010C010D0100010D010F01110112010E
:100880001401160118011901000119011B011D01B4
:100890001E0120012201240125010001250127015B
:1008A00029012A012C012E01300200041804180429
:1008B0001504130415040E08130415041804150474
:1008C00013100004180418041504130415040C086C
:1008D0001304150418041304111000041104130464
:1008E000150418041A041804160418041504150431
:1008F000130413100004110413041104110413044D
:10090000110413041304150818041504150C00042D
:10091000180418041504130415040E081304150410
:100920001804150413100004180418041504130403
:1009300015040C0813041504180413041110000402
:1009400011041304150418041A04180416041804D6
:10095000150415041304130C0C04150813081304D0
:040960001114FFFF70
:100A1000EFD39400400B7EB57DB5DDFEDEFA1F807E
:010A2000EFE6
:010A210022B2
:03000B000209DB0C
:1009DB00C0E0C083C082C0D0B293E50825E02400FC
:1009EB00F582E43408F583E493F58CE50825E024DF
:1009FB0001F582E43408F583E493F58AD0D0D082F4
:050A0B00D083D0E032B1
:10096400E4FC758901D2AFD2A975F002ECA424622B
:10097400F582E5F03408F583E493F50875F002ECAC
:10098400A42463F582E5F03408F583E493F509E5DE
:1009940008700AC28CAF09120A100C80CCE508B4A6
:1009A400FF0BC28C7F1E120A10E4FC80BC75F0029F
:1009B400ECA42464F582E5F03408F583E493B508E7
:1009C4000CD28CAF09120A10C28C0C809CD28CAF52
:0709D40009120A100C8092C9
:03000000020A22CF
:0C0A2200787FE4F6D8FD758109020964B4
:00000001FF
