:10080000FF2B3030102B3030102B202620202026BC
:10081000202B3030102B3030102B1026102B1030A6
:1008200010402040202B3030102B3030102B202651
:1008300020202026202B3026102B2030202B202B70
:1008400020FF20FF202B3030102B3030102B2026A3
:1008500020202026202B3026102B20302039203934
:100860002026102B1030102B103020302026102B7B
:100870001030102B103030201026102B1030102B81
:10088000103020302030202B20262030201C20202B
:10089000101C101C30301019201C101910192019B0
:1008A000201C1019101920262018101510181019C6
:1008B000101C2020201C2020101C101C1020101C9C
:1008C0001020101C2020102B102B10202020102670
:1008D00020262030202B20262030201C2020101CF9
:1008E000101C30301019201C101910192019201C50
:1008F0001019101920262018101510181019101C86
:100900002020201C2013101310132020201C201343
:10091000101310131020201C101C201C201C201C45
:1009200020FF20FF201820152013200E101010107B
:10093000200E10101010200E10101010201910187A
:100940001018200E10101010200E10101010200E75
:1009500010101010101330152018101C101C101837
:10096000201C10151018101C201C101830132013F8
:100970002013101210132013101520FF20FF201831
:1009800020152013200E10101010200E1010101023
:10099000200E1010101020152013200E1010101013
:1009A000200E10101010200E101010101013301503
:1009B0002018101C101C101330152018101C101CAF
:1009C00010183018201820FF20FF201C10131015BD
:1009D0002018101C101C101330152018101C101C8F
:0C09E000101830182018201820182000D3
:030B0400010B00E2
:100A7800E4F508F50975890175A882758CD8758A19
:100A8800EFD28CE4F50B0509E5097002050824008E
:100A9800F58274083508F583E493F50A0509E50934
:100AA800700205082400F58274083508F583E4937C
:100AB800F50CE50B650C60CBE50AF46015E50A60FA
:100AC8000AB293FF7E00120AE580E7E4F508F5090B
:0D0AD80080B1C293AF0C7E00120AE580D5FC
:03000B00020AFBEB
:090AFB00758CD8758AEF050B32E9
:100AE5007D02EF4E600FED60031D80FA7D02EF1F62
:050AF50070F01E80ED11
:010AFA0022D9
:030000000209EC06
:0C09EC00787FE4F6D8FD75810C020A3318
:1009F800020A78E493A3F8E493A34003F68001F293
:100A080008DFF48029E493A3F85407240CC8C333FF
:100A1800C4540F4420C8834004F456800146F6DFCE
:100A2800E4800B0102040810204080900B04E47E4F
:100A3800019360BCA3FF543F30E509541FFEE493C3
:100A4800A360010ECF54C025E060A840B8E493A38A
:100A5800FAE493A3F8E493A3C8C582C8CAC583CAB5
:100A6800F0A3C8C582C8CAC583CADFE9DEE780BE6D
:010B070000ED
:00000001FF
