:03000000020003F8
:0C000300787FE4F6D8FD75812302004AE6
:10015000140800C000F900A400B0009900920082C9
:0601600000F80080009091
:0B016700EF1FAC0670011E4C70F6226A
:04008F00AB07AA060B
:100093007C037DE81200FB8F827C037DE8AF03AE17
:1000A300021200FB7E007F64CFCDCFCECCCE1200F8
:1000B300FB8E228F237C007D64AF03AE021200FB14
:1000C3007E007F0ACFCDCFCECCCE1200FB8E208F09
:1000D30021AE02AF037C007D0A1200FB8C1E8D1F34
:1000E300AF82EF25E02408F8E6FE08E64E24FF92EF
:0800F300807F507EC30201670B
:070172007F017E0002008FF7
:10000F00020172E493A3F8E493A34003F68001F294
:10001F0008DFF48029E493A3F85407240CC8C333F2
:10002F00C4540F4420C8834004F456800146F6DFC1
:10003F00E4800B0102040810204080900150E47E00
:10004F00019360BCA3FF543F30E509541FFEE493B6
:10005F00A360010ECF54C025E060A840B8E493A37D
:10006F00FAE493A3F8E493A3C8C582C8CAC583CAA8
:10007F00F0A3C8C582C8CAC583CADFE9DEE780BE60
:010166000098
:1000FB00BC000BBE0029EF8DF084FFADF022E4CCE9
:10010B00F875F008EF2FFFEE33FEEC33FCEE9DECB1
:10011B00984005FCEE9DFE0FD5F0E9E4CEFD22EDF7
:10012B00F8F5F0EE8420D21CFEADF075F008EF2F41
:10013B00FFED33FD4007985006D5F0F222C398FD32
:05014B000FD5F0EA22CF
:00000001FF
