:100152001009C0F9A4B0999282F880908883C6A150
:02016200868E87
:08013F00F8E6F5807FF47E0173
:0B014700EF1FAC0670011E4C70F6228A
:1000030075A0EFE5A0B4EE03E4F508E5A0B4ED03B5
:10001300750801E5A0B4EB03750802E5A0B4E70396
:1000230075080375A0DFE5A0B4DE03750804E5A039
:10003300B4DD03750805E5A0B4DB03750806E5A088
:10004300B4D70375080775A0BFE5A0B4BE03750850
:1000530008E5A0B4BD03750809E5A0B4BB037508A2
:100063000AE5A0B4B70375080B75A07FE5A0B47EBD
:100073000375080CE5A0B47D0375080DE5A0B47BFA
:0D0083000375080EE5A0B4770375080F2281
:10011C0075B001E50875F00A84240912013F75B029
:10012C0002E50875F00A84740925F012013F1200EB
:03013C000380DD60
:030000000200906B
:0C009000787FE4F6D8FD7581180200D7D7
:10009C0002011CE493A3F8E493A34003F68001F25D
:1000AC0008DFF48029E493A3F85407240CC8C33365
:1000BC00C4540F4420C8834004F456800146F6DF34
:1000CC00E4800B0102040810204080900152E47E71
:1000DC00019360BCA3FF543F30E509541FFEE49329
:1000EC00A360010ECF54C025E060A840B8E493A3F0
:1000FC00FAE493A3F8E493A3C8C582C8CAC583CA1B
:10010C00F0A3C8C582C8CAC583CADFE9DEE780BED2
:01016400009A
:00000001FF
