:1001DD00140800C000F900A400B00099009200823C
:0601ED0000F80080009004
:0B01F400EF1FAC0670011E4C70F622DD
:04008F00AB07AA060B
:100093007C037DE81201888E208F217C037DE8AFED
:1000A30003AE021201887E007F64CFCDCFCECCCECB
:1000B3001201888E1E8F1F7C007D64AF03AE021277
:1000C30001887E007F0ACFCDCFCECCCE1201888FA0
:1000D30082AE02AF037C007D0A120188E52125E090
:1000E3002408F808E6F580E51F25E02408F808E66B
:1000F300F5A0AF82EF25E02408F808E6F5B0AF05D8
:10010300EF25E02408F808E6F5907F887E130201C6
:01011300F4F7
:10011400751C02751D63AF1DAE1C12008F20971A4B
:100124007FC87E321201F4209710051DE51D700270
:10013400051CFFAE1C12008F80ED20B71C7FB07E23
:10014400361201F420B712740A251DFFF51DE4359B
:100154001CFEF51C12008F80EB20A7BA7FB07E3600
:100164001201F420A7B0C3E51D940BE51C64809430
:100174008350F0051DE51DAE1C7002051C14FF1212
:04018400008F80E286
:03000000020003F8
:0C000300787FE4F6D8FD75812102004AE8
:10018800BC000BBE0029EF8DF084FFADF022E4CC5B
:10019800F875F008EF2FFFEE33FEEC33FCEE9DEC24
:1001A800984005FCEE9DFE0FD5F0E9E4CEFD22ED6A
:1001B800F8F5F0EE8420D21CFEADF075F008EF2FB4
:1001C800FFED33FD4007985006D5F0F222C398FDA5
:0501D8000FD5F0EA2242
:10000F00020114E493A3F8E493A34003F68001F2F2
:10001F0008DFF48029E493A3F85407240CC8C333F2
:10002F00C4540F4420C8834004F456800146F6DFC1
:10003F00E4800B01020408102040809001DDE47E73
:10004F00019360BCA3FF543F30E509541FFEE493B6
:10005F00A360010ECF54C025E060A840B8E493A37D
:10006F00FAE493A3F8E493A3C8C582C8CAC583CAA8
:10007F00F0A3C8C582C8CAC583CADFE9DEE780BE60
:0101F300000B
:00000001FF
