:030000000200E219
:0C00E200787FE4F6D8FD7581070200C5A8
:0B00EE00EF1FAC0670011E4C70F622E4
:10000300D285D284D283D282D281D280C2A5C2A425
:10001300C2A3C2A2C2A1C2A0EE702BEF24FE601441
:1000230014601514601614601714601824057016F4
:10003300C2808012C281800EC282800AC28380067F
:10004300C2848002C285EC7026ED24FE6013146026
:100053001314601314601314601324057011D2A0D9
:1000630022D2A122D2A222D2A322D2A422D2A52278
:10007300EE702BEF24FE60141460151460161460E8
:100083001714601824057016D2808012D281800E56
:10009300D282800AD2838006D2848002D285EC7019
:1000A30020ED24FE601014601014601014601024FE
:1000B30004700EC2A022C2A122C2A222C2A322C2E3
:0200C300A42275
:1000C5007D027C007F017E001200037FE87E031223
:0D00D50000EE7C007F017E0012007380E3CE
:00000001FF
