:0B014300EF1FAC0670011E4C70F6228E
:10000300E4FFFE7D01FCEF25E025E02408F8A604CB
:1000130008A605EF25E025E0240AF8760008760611
:100023000FBF00010E0DBD00010CED64074C70D62F
:100033007B017A00EF25E025E02408F876000876B6
:1000430003EF25E025E0240AF8A60208A6030FBF64
:1000530000010E0BBB00010AEB64074A70D67C005B
:100063007D01EF25E025E02408F8A60408A605EFA6
:1000730025E025E0240AF876000876010FBF000189
:0C0083000E0DBD00010CED64074C70D6A2
:01008F00224E
:10009000C2A5C2A4C2A3C2A2C2A1C2A0D285D28458
:1000A000D283D282D281D280EE702BEF24FE6014F4
:1000B0001460151460161460171460182405701667
:1000C000C2808012C281800EC282800AC2838006F2
:1000D000C2848002C285EC7026ED24FE6013146099
:1000E0001314601314601314601324057011D2A04C
:1000F00022D2A122D2A222D2A322D2A422D2A522EB
:10010000120003E4FBFAEB25E025E02408F8E6FE04
:1001100008E6FFEB25E025E0240AF8E6FC08E6FD0A
:100120001200900BBB00010AEB64124A70D87F8466
:070130007E0312014380C9A8
:03000000020137C3
:0C013700787FE4F6D8FD75814F020100CE
:00000001FF
