:0300000002014AB0
:0C014A00787FE4F6D8FD75815102013A7F
:10000300E4FFFE7D01FCEF25E025E02408F8A604CB
:1000130008A605EF25E025E0240AF8760008760611
:100023000FBF00010E0DBD00010CED64074C70D62F
:100033007B017A00EF25E025E02408F876000876B6
:1000430003EF25E025E0240AF8A60208A6030FBF64
:1000530000010E0BBB00010AEB64074A70D67C005B
:100063007D01EF25E025E02408F8A60408A605EFA6
:1000730025E025E0240AF876000876010FBF000189
:0C0083000E0DBD00010CED64074C70D6A2
:01008F00224E
:0B015600EF1FAC0670011E4C70F6227B
:10009000EE702BEF24FE60141460151460161460CB
:1000A0001714601824057016C2808012C281800E59
:1000B000C282800AC2838006C2848002C285EC703C
:1000C00026ED24FE601314601314601314601314DF
:1000D000601324057011D2A022D2A122D2A222D272
:0800E000A322D2A422D2A52222
:1000E800EE702BEF24FE6014146015146016146073
:1000F8001714601824057016D2808012D281800EE1
:10010800D282800AD2838006D2848002D285EC70A3
:1001180020ED24FE60101460101460101460102488
:1001280004700EC2A022C2A122C2A222C2A322C26D
:02013800A422FF
:0F013A00C285C284C283C282C281E4F550F551EE
:010149002293
:00000001FF
