:1009880001301101251401191801170C0116060A66
:1009980026C0F9A4B0999282F88090081A0102043E
:0509A800081020408052
:1002E300E50D701985283C85283B85263A852739F5
:1002F300852638852C3785273685273522E50D64F5
:1003030001703D852D3C852D3B852F3A7539FF7551
:1003130038FFAE22AF23FC7D0A12028074262FF829
:10032300E6F537AE22AF237C007D0A1202807426E5
:100333002DF8E6547FF53674262534F8E6F5352294
:10034300E50D64027055E51675F00A84742625F0F0
:10035300F8E6F535E51675F00A842426F8E6F53651
:10036300E51775F00A84742625F0F8E6F537E517E6
:1003730075F00A842426F8E6F538E51975F00A8441
:10038300742625F0F8E6F539E51975F00A84242674
:10039300F8E6F53A85263B85283C22E50D640360A3
:1003A30003020572E50F7040E52475F00A84742694
:1003B30025F0F8E6F535E52475F00A842426F8E6F9
:1003C300F536E51444BFFFF537E53075F00A84745C
:1003D3002625F0F8E6F538E53075F00A842426F88A
:1003E300E6F5398F3A0204CAE50F6401704FE5243C
:1003F30075F00A84742625F0F8E6F535E52475F0E2
:100403000A842426F8E6F5367537BFE53075F00A19
:1004130084742625F0F8E6F538E53075F00A84246F
:1004230026F8E6F539753ABFE52575F00A84742692
:1004330025F0F8E64514F53BE52502051BE50F64B9
:10044300027040E52475F00A84742625F0F8E6F579
:1004530035E52475F00A842426F8E6F5367537BFAA
:10046300E53075F00A84742625F0F8E64514F5386E
:10047300E53075F00A842426F8E64514F539753A13
:10048300BF8044E50F64037051E52475F00A84745A
:100493002625F0F8E64514F535E52475F00A84249D
:1004A30026F8E64514F5367537BFE53075F00A844E
:1004B300742625F0F8E6F538E53075F00A8424262D
:1004C300F8E6F539753ABFE52575F00A84742625F3
:1004D300F0F8E6F53BE525020568E50F6404704591
:1004E3007535FF7536FF7537FFE51575F00A8474AA
:1004F3002625F0F8E6F538E51575F00A842426F884
:10050300E6F539753ABFE51375F00A84742625F0CC
:10051300F8E64514F53BE51375F00A842426F8E65E
:100523004514F53C22E50F640570447535FF7536B7
:10053300FF7537FFE51575F00A84742625F0F8E694
:100543004514F538E51575F00A842426F8E64514B4
:10055300F539753ABFE51375F00A84742625F0F86A
:10056300E6F53BE51375F00A842426F8E6F53C220C
:07000300C2B4C2B7D2B4225F
:070A6C00120003D2B47F8EDB
:100A7300E4FEEF1392B5D2B7C2B7EFC313FF0EBEB6
:020A830008F079
:010A8500224E
:100A9F00E4FFFEEFC313FF30B503430780D2B7C2A5
:050AAF00B70EBE08EEC9
:010AB400221F
:0D0B4B00120A6CE4FF120A73C2B5C2B42294
:0D0B5800120A6C7F80120A73C2B5C2B4226B
:100AF300120003D2B4120A73AF05120A73C2B4C24E
:020B0300B52219
:100B0500E4FE120003D2B4120A73120A9FC2B4C2E1
:010B1500B52A
:010B160022BC
:070B1700120ACA7F2C7E01C7
:0B0B1E00EF1FAC0670011E4C70F622A9
:0607DD008B3D8A3E893FBE
:1007E300E4F540FCAB3DAA3EA93F8C827583001221
:1007F30001EC75F00A84F540E92CF9E43AFA1201A8
:10080300D375F00A84E5F012024CE540C454F0AB12
:100813003DAA3EA93F8C827583001202190CBC07C6
:10082300C3120B4B754080E4FCAB3DAA3EA93F8C41
:10083300827583001201ECFDAF40120AF3054005F7
:08084300400CBC07E4020B5855
:0609AE008B418A428943DF
:1009B4007D81E4FCAF05120B05AB41AA42A9438C2F
:0E09C40082758300EF12025E0D0D0CBC07E67B
:0109D2002202
:030B2900120B05A7
:0E0B2C00EF540FFEEFC4540F75F00AA42EFF15
:010B3A002298
:100ADF00EF75F00A84AEF0EF75F00A84C454F0425B
:030AEF0006AF0649
:010AF20022E1
:100918007F81120B298F247F83120B298F307F85CB
:10092800120B05120B2C8F257F87120B05120B2C2F
:100938008F167F89120B05120B2C8F177F8B120BCA
:1009480005120B2C8F187F8D120B05120B2C8F198B
:01095800227C
:1008B700AF24120ADF8F24AF30120ADF8F30AF2543
:1008C700120ADF8F25AF19120ADF8F19AF17120A25
:1008D700DF8F17AF16120ADF8F16120B4BAD247F6F
:1008E70080120AF3AD307F82120AF3AD257F84129E
:1008F7000AF3AD167F86120AF3AD177F88120AF343
:10090700AD187F8A120AF3AD197F8C120AF3020B16
:010917005887
:0D0B6500D2B600D2B700C2B600C2B700225F
:0A0B7200C2B600D2B700D2B60022CE
:0B0A3400120AB5120A3FAF05120AB506
:100A3F007FFFD2B70030B606AE071FEE70F7C2B712
:010A4F0000A6
:010A50002283
:070B7C00D2B600D2B700223F
:100A8600D2B67E08D2B7EF25E0FF30B603430701A2
:080A9600C2B7DEF0D2B6C2B710
:010A9E002235
:100AB5007E08EF3392B6EF25E0FFD2B7C2B7DEF27C
:040AC500D2B6C2B72C
:010AC900220A
:100ACA00AC07120B657FA0120AB5120A3FAF0412D7
:050ADA000A34020B725A
:020A5100AD07EF
:100A5300120B657FA0120A34120B657FA1120AB52F
:090A6300120A3F120A86020B720E
:100A15007DFFD291C2917F507E00120B1ED2913084
:0F0A25009106AF051DEF70F77F147E00020B1EC8
:1009F500E4FBD2917D08C291EBC313FBD2913091F8
:0F0A0500034303807F0A7E00120B1EDDE9AF035F
:010A140022BF
:0209D300AD076E
:1009D500D2917B08C291ED1392917F0A7E00120B92
:1009E5001ED291EDC313FDDBEB7F087E00020B1ECB
:10095900120A157FCC1209D37F441209D3120A1542
:100969007FCC1209D37FBE1209D31209F575440051
:0E0979008F451209F5EFFEEE4244AE44AF4545
:01098700224D
:1005730075A0EFE5A0B4EE0C050FE50FC39404409E
:1005830003750F01E5A064EE60FAE5A064ED705811
:10059300E50FB4010C0525E524C3943C4003E4F5C1
:1005A30025E50FB4020C0530E530C3943C4003E469
:1005B300F530E50FB4030C0524E524C3943C400354
:1005C300E4F524E50FB4040C0513E513C3941840B4
:1005D30003E4F513E50FB4050C0515E515C3943CC9
:1005E3004003E4F5151208B7E5A064ED60FAE5A051
:1005F30064EB7058E50FB4010C1525E524D3940082
:100603005003E4F525E50FB4020C1530E530D3941F
:10061300005003E4F530E50FB4030C1524E524D3AF
:1006230094005003E4F524E50FB4040C1513E5130B
:10063300D394005003E4F513E50FB4050C1515E549
:1006430015D394005003E4F5151208B7E5A064EB45
:1006530060FAE5A0B4E703E4F50FE5A064E760FA08
:010663002274
:03000B0002084B9D
:10084B00C0E0C0D075D000C000758CF8758A30053B
:10085B0032E53270020531C394FAE5319400400D54
:10086B0075310075320005116314FF0512E511C3D4
:10087B009402400E751100050DE50D9404400375AF
:10088B000D037580FF741A250BF8E6F580D290C224
:10089B00907435250BF8E6F580050BE50BC3940832
:0C08AB004003750B00D000D0D0D0E0322C
:100B3B00758901758CF8758A30D2AFD2A9D28C2207
:10066400120B7C1209597F307E75120B1E7D167F8A
:1006740001120B177D017F02120B177D067F0312F7
:100684000B177D0B7F04120B177D077F05120B17C9
:100694007D4F7F06120B177F01120A518F087FB816
:1006A4007E0B120B1E7F02120A518F097FB87E0B3C
:1006B400120B1E7F03120A518F0A7FB87E0B120B96
:1006C4001E7F04120A518F0C7FB87E0B120B1E7F03
:1006D40005120A518F0E7FB87E0B120B1E7F061275
:1006E4000A518F107FB87E0B120B1E120B3BE512C2
:1006F400C39402403DE4F5121209598E228F2375EA
:100704003300E523540FF534AC33FDE4120119E44E
:10071400FBFA7920783F12000E1201528E338F3487
:10072400E522C4F854F0C868F522E523C4540F4800
:10073400F5231202E3120918120573E525B513090E
:0D074400E530B51504C29780A5D29780A1BD
:10000E00EC4D6011E8497017ED33EC3304600DE4EC
:10001E00FCFFFEFD22E933E8330470F80201BE1244
:10002E00018958046009E4CC248150062850090245
:10003E0001C82840030201C5C0E0EB4A7044B980F4
:10004E0006D0E0FB0201B4EF4E701CBD8008EBFF42
:10005E00EAFEE9FD80EBE98DF0A4FEE5F00200F783
:10006E00E9CDF9EAFEEBFFEF89F0A4FCE5F0CE89CD
:10007E00F0A42EFFE435F0CD89F0A42DFEE435F08A
:10008E008067EF4E7005BD80D780C3EF8BF0A4ACB8
:10009E00F0EE8BF0A42CFCE435F0F8EF8AF0A42CF3
:1000AE00E5F038FCE433CB8DF0A42CFCE5F03BF806
:1000BE00EE8AF0A42CFCE5F038F8E433CF89F0A4F6
:1000CE002CFCE5F038CF3400CE89F0A42FFFE5F0FC
:1000DE003EFEE433C98DF0A42EFEE5F039CD8AF054
:1000EE00A42FFFE5F03EFEE43DFD33D0E0FB5007CC
:1000FE000BBB000F0201C8EC2CFCEF33FFEE33FEFE
:06010E00ED33FD0201A02B
:1001140075F020800E75F010800575F0087D007E66
:10012400007F003392D530D5031202D5EC33401052
:10013400EF33FFEE33FEED33FDEC33FCD5F0ED226F
:0E014400E5F0247EA2D513CC92E7CDCEFF22AB
:10015200EDD2E7CD33EC3392D524814006E4FFFEA5
:10016200FDFC22FCE4CFCECDCC24E0501174FF8004
:10017200EDC3CC13CCCD13CDCE13CECF13CF0470A1
:07018200F030D5DE0202D5CA
:10018900E9D2E7C933E833F892D5EDD2E7CD33ECBC
:0701990033FC5002B2D52235
:1001A000EC30E7100FBF000C0EBE00080DBD0004C0
:1001B0000BEB6014A2D5EB13FCED92E7FD2274FF6C
:1001C000FCFDFEFF22E480F8A2D574FF13FC7D80C5
:0301D000E480EFD9
:03000000020751A3
:0C075100787FE4F6D8FD7581450207981A
:1001D300BB010689828A83E0225002E722BBFE022A
:0901E300E32289828A83E493225D
:1001EC00BB010CE58229F582E5833AF583E02250C8
:1001FC0006E92582F8E622BBFE06E92582F8E22212
:0D020C00E58229F582E5833AF583E493222B
:10021900BB010FF8E58229F582E5833AF583E028E9
:10022900F0225009C58229F8E58226F622BBFE098B
:10023900C58229F8E22582F222F8EA2583F583E9C5
:03024900932822D5
:10024C00BB010689828A83F0225002F722BBFE0191
:02025C00F3228B
:10025E00F8BB010DE58229F582E5833AF583E8F0D6
:10026E00225006E92582C8F622BBFE05E92582C882
:02027E00F2226A
:10028000BC000BBE0029EF8DF084FFADF022E4CC62
:10029000F875F008EF2FFFEE33FEEC33FCEE9DEC2B
:1002A000984005FCEE9DFE0FD5F0E9E4CEFD22ED71
:1002B000F8F5F0EE8420D21CFEADF075F008EF2FBB
:1002C000FFED33FD4007985006D5F0F222C398FDAC
:0502D0000FD5F0EA2249
:0E02D500C3E49FFFE49EFEE49DFDE49CFC223A
:10075D00020664E493A3F8E493A34003F68001F248
:10076D0008DFF48029E493A3F85407240CC8C3339D
:10077D00C4540F4420C8834004F456800146F6DF6C
:10078D00E4800B0102040810204080900988E47E6B
:10079D00019360BCA3FF543F30E509541FFEE49361
:1007AD00A360010ECF54C025E060A840B8E493A328
:1007BD00FAE493A3F8E493A3C8C582C8CAC583CA53
:1007CD00F0A3C8C582C8CAC583CADFE9DEE780BE0B
:0109AD000049
:00000001FF
